:040000001FEF3EF0C0
:107B9400036E8B928B940350E7EC3DF08B848B82C5
:107BA4001200056E05508009CAEC3DF004504009EE
:107BB400CAEC3DF01200210ECAEC3DF0BF0ECAEC37
:107BC4003DF0200ECAEC3DF01200026EC9509E96A4
:107BD400C69E02C0C9FFC6BE12009EB61200FDD7E3
:107BE400C2900F0EC16E6D969490949294948B8073
:107BF4008B828B941200086E06C004F00850D3ECFC
:107C04003DF08B928B840750E7EC3DF08B821200A1
:107C140036EC3EF0210ECAEC3DF0130ECAEC3DF0FA
:107C2400BF0ECAEC3DF0070ECAEC3DF0200ECAECC4
:107C34003DF00C0ECAEC3DF01200080EF66E7E0EFE
:107C4400F76E000EF86E06EE08F011EEF8F009007B
:107C5400F5CFEEFFE550E150FAE1E250F8E1000E15
:107C6400F86E0001A2EF3EF08B928B90060E026E2E
:107C7400130E016EAE0EE82EFED7012EFCD7022E97
:107C8400FAD78B80A30E016E550EE82EFED7012E77
:107C9400FCD700F08B82410E016EEE0EE82EFED76B
:107CA400012EFCD700D01200080ECAEC3DF0020EE3
:107CB400056E450E046EAA0EE82EFED7042EFCD7E0
:107CC400052EFAD7090ECAEC3DF00D0E056EAF0E67
:107CD400046EB60EE82EFED7042EFCD7052EFAD776
:107CE40000D00C0ECAEC3DF01200036E3F0EC71616
:107CF400000EC66E0350C6120250C71205D0C78CC0
:107D040013D0C78CC68810D00150000AD8B4F7D756
:107D1400020AD8B4F6D7010AD8B4F4D705D0928AA7
:107D240093820AD0939208D00350040AD8B4F7D7A8
:107D3400010AD8B4F5D7F6D79380949EC68A120068
:107D4400F2EC3DF0000E016E800E026E000E77EC38
:107D54003EF00AEC3EF07F0EDDEC3DF056EC3EF0DA
:107D6400000E0B6E000E066EFF0E076E0B50FDEC40
:107D74003DF0010E066EFF0E076E0B50FDEC3DF05C
:107D8400020E066EFF0E076E0B50FDEC3DF0A30EC7
:107D9400096E550EE82EFED7092EFCD700F00B2AEB
:107DA400530E0B64DFD7060E0A6E130E096EAE0E69
:107DB400E82EFED7092EFCD70A2EFAD7540E0C6EE5
:107DC400000E066E000E076E0C50FDEC3DF0010E29
:107DD400066E000E076E0C50FDEC3DF0020E066EB2
:107DE400000E076E0C50FDEC3DF0A30E096E550E0F
:107DF400E82EFED7092EFCD700F00C060C50D8B4A0
:107E0400AFD7DED700000000000000000000000033
:107E1400000000000000000000000000000000005E
:107E240000000000000000000000C0E0F0F8FCFCCE
:107E3400FEFFFCE000000000000000000000000065
:107E4400000000000000000000000000000000002E
:107E5400000000000000000000000000000000001E
:107E6400000000000000000000F8F8F8F8F8F8F846
:107E7400F8F8F8F8F8F0F0E0E0C080C0FCFFFFFF8D
:107E8400FF7F3F7FFFFFFFFFFF00000000000000B7
:107E940000000000000000000000000000000000DE
:107EA40000000000000000000000000000000000CE
:107EB40000000000000000000000000000000F1F90
:107EC4003F7FFFFFFFFFFFFFFFFFE7C7C7878F9FCE
:107ED4009FFFFFFFC1C0E0FCFFFFFFFFFFFCFCFCB6
:107EE400FCFEFEFEFCFCF8F8F0E0C0C00000000060
:107EF400000000000000000000000000000000007E
:107F0400000000000000000000000000000000006D
:107F1400000000000080C0E0F1FBFFFFFFFFFF7FD7
:107F24001F0F0F87E7FFFFFF1F1F3FF9F8F8F8F84F
:107F3400F8F8FDFFFFFFFFFFFFFFFFFF7F3F0F0785
:107F4400010000000000000000000000000000002C
:107F5400000000000000000000000000000000001D
:107F640000000000000000F0FEFFFFFFFFFFFFFF26
:107F7400FFFFFFFE7E3F3F0F1FFFFFFFFCF0E0F11E
:107F8400FFFFFFFFFFFCF0010101010101010100FE
:107F940000000000000000000000000000000000DD
:107FA40000000000000000000000000000000000CD
:107FB40000000000000000000000000303030303AE
:107FC4000303030101010100000000000000030F8E
:107FD4001F3F7F7FFFFFFFFF7F7F1F030000000025
:107FE400000000000000000000000000000000008D
:0C7FF40000000000000000000000000081
:020000040020DA
:08000000FFFFFFFFFFFFFFFF00
:020000040030CA
:0E0000001C0C191EFF8381FF0FC00FE00F4084
:00000001FF
